:1000000083C000002BC200004DC200006FC2000080
:1000100091C20000B3C20000D5C20000F7C20000C8
:1000200019C300003BC300000C94D8150C94A5160E
:1000300088C0000086C0000084C0000082C00000AC
:1000400080C000007EC000007CC000007AC00000BC
:1000500078C0000076C0000074C0000072C00000CC
:100060000C947A106EC000006CC000006AC00000E2
:1000700068C0000066C0000064C0000062C00000EC
:1000800060C000005EC000005CC000005AC00000FC
:1000900058C0000056C0000018034100560052002E
:1000A0002000430041004E00200055005300420054
:1000B00000001E034100760069006F006E006900B9
:1000C00063002000440065007300690067006E0053
:1000D0000000040309040902200001010080320924
:1000E00004000002FFFFFF00070581021400010762
:1000F0000502021400011201100100000040091263
:10010000232311010102DC0111241FBECFEFD0E136
:10011000DEBFCDBF14E0A0E0B1E0ECEEF0E302C042
:1001200005900D92AA3AB107D9F72BE0AAEAB4E0FC
:1001300001C01D92A032B207E1F70E94F6080C94AC
:1001400074185ECF292F33272230310559F0233020
:10015000310569F021303105F9F482E190E026EFB4
:1001600030E01EC080E290E026ED30E019C0992713
:100170008130910541F08230910541F0892B61F485
:10018000E2EDF0E005C0E2EBF0E002C0E8E9F0E00B
:10019000849190E09F0104C080E090E020E030E096
:1001A000FA01318320830895E82FEF7382958695B5
:1001B00086958370813019F0823039F00DC0E830B7
:1001C00058F4F0E0E956FB4F05C0E83028F4F0E0C1
:1001D000E156FB4F8081089580E00895E5DF882394
:1001E00089F0E82FE695E695E695F0E0278D30E07A
:1001F0008770A90102C0559547958A95E2F7CA0113
:10020000817008958FEF08950F931F93CF93DF931D
:1002100095E0899FD0011124AD52BB4FCD91DC9167
:100220001197209771F012960D911C9113978F736F
:100230008064D4DFB801FE01DF91CF911F910F914F
:100240000994DF91CF911F910F9108950F931F9300
:10025000CF93DF93982F92959695969593709130C2
:1002600019F0923079F04AC04DB38F7321E030E03D
:10027000B90102C0660F771F8A95E2F7CB01842B84
:100280008DBB3AC0982F9F73C92FC695C695C6954A
:1002900019F000E010E002C00BE610E0D82FD77094
:1002A0000115110559F1892F806898DF2C2F30E056
:1002B000F901E655FB4F882351F081E090E00D2EC7
:1002C00001C0880F0A94EAF79081892B0AC081E067
:1002D00090E00D2E01C0880F0A94EAF78095908176
:1002E00089238083F801208181E090E001C0880F9C
:1002F000DA95EAF7822B808380E001C08FEFDF91EF
:10030000CF911F910F910895982F9295969596955C
:100310009370913019F0923081F015C04DB38F7306
:1003200021E030E0B90102C0660F771F8A95E2F73D
:10033000CB01809584238DBB18C0982F9F73969511
:100340009695969511F08FEF089540916B00877008
:1003500021E030E0B90102C0660F771F8A95E2F70D
:10036000CB018095842380936B0080E00895CF9229
:10037000DF92EF92FF920F931F93CF93DF931F9221
:10038000CDB7DEB7D82EC42E790169830DDF698120
:10039000882309F44DC017D2811156C08D2DB4DFCA
:1003A000811152C0ED2DEF738D2D82958695869526
:1003B0008370813019F0823021F13AC085E0E89FE6
:1003C000D0011124AD52BB4FE695E695F0E0E75918
:1003D000FF4F20818D2D8370382F330F83E090E005
:1003E000032E01C0880F0A94EAF78095982F922374
:1003F0008C2D837001C0880F3A95EAF7892B808392
:1004000019C085E0E89FD0011124A555BB4FCC2031
:1004100079F020916800E695E695E69581E090E018
:1004200001C0880FEA95EAF7822B8093680002C02A
:100430008FEF0AC01196FC92EE9213961C930E93C6
:1004400012971496CC9280E00F90DF91CF911F917C
:100450000F91FF90EF90DF90CF9008951F920F9231
:100460000FB60F9211242F933F934F935F936F9387
:100470007F938F939F93AF93BF93EF93FF9380E00E
:10048000C3DEFF91EF91BF91AF919F918F917F91CB
:100490006F915F914F913F912F910F900FBE0F90F1
:1004A0001F9018951F920F920FB60F9211242F9341
:1004B0003F934F935F936F937F938F939F93AF93EC
:1004C000BF93EF93FF9381E09FDEFF91EF91BF9188
:1004D000AF919F918F917F916F915F914F913F91DC
:1004E0002F910F900FBE0F901F9018951F920F9293
:1004F0000FB60F9211242F933F934F935F936F93F7
:100500007F938F939F93AF93BF93EF93FF9382E07B
:100510007BDEFF91EF91BF91AF919F918F917F9182
:100520006F915F914F913F912F910F900FBE0F9060
:100530001F9018951F920F920FB60F9211242F93B0
:100540003F934F935F936F937F938F939F93AF935B
:10055000BF93EF93FF9383E057DEFF91EF91BF913D
:10056000AF919F918F917F916F915F914F913F914B
:100570002F910F900FBE0F901F9018951F920F9202
:100580000FB60F9211242F933F934F935F936F9366
:100590007F938F939F93AF93BF93EF93FF9384E0E9
:1005A00033DEFF91EF91BF91AF919F918F917F913A
:1005B0006F915F914F913F912F910F900FBE0F90D0
:1005C0001F9018951F920F920FB60F9211242F9320
:1005D0003F934F935F936F937F938F939F93AF93CB
:1005E000BF93EF93FF9385E00FDEFF91EF91BF91F3
:1005F000AF919F918F917F916F915F914F913F91BB
:100600002F910F900FBE0F901F9018951F920F9271
:100610000FB60F9211242F933F934F935F936F93D5
:100620007F938F939F93AF93BF93EF93FF9386E056
:10063000EBDDFF91EF91BF91AF919F918F917F91F2
:100640006F915F914F913F912F910F900FBE0F903F
:100650001F9018951F920F920FB60F9211242F938F
:100660003F934F935F936F937F938F939F93AF933A
:10067000BF93EF93FF9387E0C7DDFF91EF91BF91A9
:10068000AF919F918F917F916F915F914F913F912A
:100690002F910F900FBE0F901F9018951F920F92E1
:1006A0000FB60F9211248F929F92AF92BF92DF925A
:1006B000EF92FF920F931F932F933F934F935F936C
:1006C0006F937F938F939F93AF93BF93CF93DF935A
:1006D000EF93FF93E090AA04E091A704F091A8049F
:1006E000D080A0906B000BEA14E0C0E0D0E0B12C09
:1006F000ED24F12C8D2C912C8C2F95010C2E02C009
:10070000359527950A94E2F720FF38C0D801ED917E
:10071000FC911197309791F197010C2E02C03595FD
:1007200027950A94E2F720FF29C014969C919130F6
:10073000B9F0923051F494010C2E02C035952795F2
:100740000A94E2F720FF0CC019C09330B9F4940169
:100750000C2E02C0359527950A94E2F720FF0EC0B3
:10076000D80112966D917C911397940102C0359532
:1007700027958A95E2F7C9018170099521960B5F4B
:100780001F4FC830D10509F0B7CFD092AA04FF910E
:10079000EF91DF91CF91BF91AF919F918F917F9119
:1007A0006F915F914F913F912F911F910F91FF900A
:1007B000EF90DF90BF90AF909F908F900F900FBE03
:1007C0000F901F901895E82FE695E695E695F0E0D6
:1007D0007F96282F277081E090E001C0880F2A952E
:1007E000EAF7282F20959281662319F0892B8283BE
:1007F00002C09223928381818223818380E00895C5
:10080000E82FE695E695E695F0E07F96282F27708D
:1008100081E090E001C0880F2A95EAF722816623E3
:1008200011F0282B03C0382F309523232283918188
:10083000892B818380E008958091490A90914A0A2A
:10084000892B99F08091470A9091480A892B69F089
:100850008091450A9091460A892B39F081E02091D8
:10086000430A3091440A232B09F480E081700895F3
:10087000CF93DF93EC0189818F5F8F709881891707
:10088000F9F061157105C9F0298194E1AE01929FDB
:10089000400D511D11249A012E5F3F4F62177307BF
:1008A00061F02981DE01929FA00DB11D11241296E5
:1008B000FB0101900D929A95E1F7898380E001C0D8
:1008C00084EEDF91CF9108950097A1F120913E0A27
:1008D000223090F5DC012C9331E0320F30933E0A48
:1008E00030E0F901EE0FFF1FE15CF54F918380834B
:1008F00042E451E0249FF001259FF00D349FF00D5C
:100900001124E654F84FDF019A011D922150304026
:10091000E1F7DC018C91849FF001859FF00D11249B
:10092000EA5CFA4FDF019A011D9221503040E1F755
:1009300080E008958AEE089584EF089510924A0A9F
:100940001092490A1092480A1092470A1092460AD9
:100950001092450A1092440A1092430A0895EF92A9
:10096000FF920F931F93CF93DF93CDB7DEB72897F6
:100970000FB6F894DEBF0FBECDBF10E008E0CE0189
:1009800001967C01812F012E000C990B20913E0ACB
:1009900030E082179307ACF4D701E02F1D92EA955F
:1009A000E9F7880F991FFC01E15CF54F8081918187
:1009B000DC011596ED91FC911697B70109951F5F23
:1009C000E1CF28960FB6F894DEBF0FBECDBFDF9102
:1009D000CF911F910F91FF90EF900895CF93DF93E8
:1009E00000D000D0CDB7DEB78091E800877F80933C
:1009F000E80064E070E0CE0101960E94151488239F
:100A000031F08091EB0080628093EB003CC08981E3
:100A10009A81AB81BC81AA27BB27892B8A2B8B2B80
:100A2000A9F085E194E190934A0A8093490A8EE403
:100A300093E19093480A8093470A86EB92E1909362
:100A4000460A8093450A8EE192E114C083E594E161
:100A500090934A0A8093490A8FEA93E19093480A57
:100A60008093470A8FEF92E19093460A8093450A5C
:100A700087E692E19093440A8093430A8091E800CC
:100A80008E778093E8000F900F900F900F90DF917A
:100A9000CF910895D1DE882321F180913E0A8823E9
:100AA00001F18091E800877F8093E80080913E0A01
:100AB00081508093FE04E091470AF091480A6CE06F
:100AC00070E08BEF94E00995882331F08091EB0082
:100AD00080628093EB0008958091E8008B7780938B
:100AE000E80008950F931F93CF93DF93CDB7DEB740
:100AF00028970FB6F894DEBF0FBECDBF8C019CDEE9
:100B0000882309F455C080913E0A90E00817190720
:100B100008F04EC08091E800877F8093E800E09164
:100B2000490AF0914A0A68E070E0CE010196099501
:100B3000811139C0F801EE0FFF1FE15CF54F808194
:100B40009181DC011596ED91FC911697BE016F5FC6
:100B50007F4F0995811127C089819A81AB81BC8122
:100B6000892B8A2B8B2BC9F442E451E0049F90011E
:100B7000059F300D149F300D1124F901E654F84FF4
:100B8000DF01CA011D920197E9F7F901EA5CFA4F0A
:100B9000DF01CA011D920197E9F78091E8008E7785
:100BA0008093E80005C08091EB0080628093EB00A9
:100BB00028960FB6F894DEBF0FBECDBFDF91CF9160
:100BC0001F910F9108950F931F93CF93DF93CDB78C
:100BD000DEB764970FB6F894DEBF0FBECDBF8C01B1
:100BE0002BDE882399F180913E0A90E008171907BF
:100BF00068F58091E800877F8093E800E091490ADA
:100C0000F0914A0A64E170E0CE01019609958111E4
:100C100018C0000F111FF801E15CF54F8081918130
:100C2000DC011396ED91FC911497BE016F5F7F4F2D
:100C30000995811106C08091E8008E778093E800C5
:100C400005C08091EB0080628093EB0064960FB644
:100C5000F894DEBF0FBECDBFDF91CF911F910F91F2
:100C60000895CF93DF93EC01E7DD882381F0209195
:100C70003E0A30E0C217D30750F48091E800877F26
:100C80008093E8008091E8008E778093E800DF9100
:100C9000CF9108950F931F93CF93DF93CDB7DEB716
:100CA000A8970FB6F894DEBF0FBECDBF8C01C4DD90
:100CB000882399F180913E0A90E00817190768F59A
:100CC0008091E800877F8093E800000F111FF801F2
:100CD000E15CF54F80819181DC011196ED91FC91F1
:100CE0001297BE016F5F7F4F0995811111C0E0918E
:100CF000470AF091480A68E270E0CE010196099532
:100D0000811106C08091E8008B778093E80005C0D0
:100D10008091EB0080628093EB00A8960FB6F89468
:100D2000DEBF0FBECDBFDF91CF911F910F91089510
:100D30004F925F926F927F929F92AF92BF92CF92AB
:100D4000DF92EF92FF920F931F93CF93DF931F9247
:100D5000CDB7DEB7809135058823A1F040912A05F3
:100D600022E431E0429FC001439F900D112461E2D3
:100D700075E08654984F7CDD882351F181E08093A3
:100D8000350528C082E08093E9008091E80082FF69
:100D900021C0E091450AF091460A4FE155E064E137
:100DA00070E081E295E009958530A1F09091E8002E
:100DB0009B779093E8001092200510921F058111F7
:100DC00009C090912A0580913E0A981738F202C016
:100DD00010923505D12C92E4E92EFF24F39424E1FE
:100DE000C22E9924939439C06D2C712CF301EE0F0F
:100DF000FF1FE15CF54FA080B1806E9C80016F9C6D
:100E0000100D7E9C100D1124C8018654984F2C01A2
:100E1000DC019C9111968C911197981323C022E0CC
:100E20006E9C50016F9CB00C7E9CB00C1124F5019F
:100E3000EA5CFA4F3F018F010F5F1F4F80911D0544
:100E400090911E05892BB9F18091070590910805B5
:100E50006816790609F449C0D39480913E0AD816E1
:100E600018F26DC08C91C89E000D111D1124045400
:100E7000184FD5011796ED91FC911897B801C5014F
:100E80000995803F61F2F50120812E9DC0012F9DC3
:100E9000900D1124B8018A5C9A4FEADCD2019C9132
:100EA00011968C911197981709F4B9CF8C918F5F97
:100EB0008F708C93B4CFD3019C91F80180819817E7
:100EC00059F28C91F501C89EE00DF11D1124E85CEA
:100ED000FA4FA9E0B5E08C2D01900D928A95E1F7CB
:100EE000D3018C918F5F8F708C939092E900E09189
:100EF000430AF091440A4DE155E064E170E089E075
:100F000095E0298309952981853029F47092080597
:100F1000609207050FC09091E8009E779093E800DB
:100F200010921E0510921D051092080510920705DB
:100F3000811192CF213009F48FCF21E07FCF0F9024
:100F4000DF91CF911F910F91FF90EF90DF90CF90A5
:100F5000BF90AF909F907F906F905F904F9008955B
:100F60008F929F92AF92BF92EF92FF920F931F9337
:100F7000CF93DF93DC013C91E0913E0A3E1708F0ED
:100F800057C0293008F054C0A2E4B1E03A9FF00104
:100F90003B9FF00D1124DF01AA5CBA4F11963C91E2
:100FA0001197CC913F5F3F703C1709F443C0EC01AF
:100FB00011968C91DF0134E1839FA00DB11D1124A6
:100FC000CD01A85CBA4F7D01FC01EA5CFA4F882490
:100FD0008A94982C540182829382A482B58246839B
:100FE000578360877187228738813387222351F0A6
:100FF0000115110539F0422F50E0B8018C5B9A4F72
:101000000E945B18488122E431E0429FC001439F67
:10101000900D1124B7018A5C9A4FDF91CF911F91F7
:101020000F91FF90EF90BF90AF909F908F9020CC4A
:101030008AEE01C084EEDF91CF911F910F91FF9056
:10104000EF90BF90AF909F908F90089577CC87CC12
:1010500046E261E881E00E94F214811104C081E05F
:101060008093170B089546E260E882E00E94F21434
:101070008823A9F308958091190B8230B9F028F4E0
:10108000882351F08130D9F00895853051F08730B0
:10109000F9F0843079F525C08091180B813451F531
:1010A0009DCC8091180B813C29F5F4CC8091180BD4
:1010B000813401F580911A0B90911B0B13CD809117
:1010C000180B8134B9F480911A0B90911B0B7BCDD6
:1010D0008091180B813471F480911A0B90911B0B45
:1010E000C0CD8091180B813C29F480911A0B90910E
:1010F0001B0BD0CD0895CF92DF92EF92FF920F930A
:101100001F93CF93DF93CDB7DEB765970FB6F894F3
:10111000DEBF0FBECDBF45E150E060E070E0CE0124
:1011200001960E9464182981233008F050C0209352
:10113000000140E030E069EC71E05AE0842F042EB9
:10114000000C990B821793070CF041C0869FF001A9
:10115000879FF00D969FF00D1124EF5FFE4F589F73
:10116000D001599FB00D112401E010E00C0F1D1F9C
:10117000A00FB11F1196CD90DD90ED90FC901497CB
:10118000C486D586E686F78615961C911597108B32
:1011900016961C911697118717961C91179713870F
:1011A00018961C911897118B1996AC91A28B0196E9
:1011B000589FD001599FB00D112481E090E08C0F11
:1011C0009D1FA80FB91F8C91838B4F5FB7CF65967A
:1011D0000FB6F894DEBF0FBECDBFDF91CF911F9148
:1011E0000F91FF90EF90DF90CF90089590E080E80E
:1011F0000FB6F89480936100909361000FBE9BE05E
:1012000088E10FB6F894A895809360000FBE909384
:1012100060000E94BD1578946EDFC0E009EC11E01B
:101220002C2F30E080910001082E000C990B28171C
:10123000390764F4209FC001219F900D309F900DCD
:1012400011248F5F9E4F78D5CF5FEACFA89570DDD0
:10125000FDCFCF93DF93EC01CC53DE4F2881DC012F
:1012600034E2239FA00DB11D1124D496ED91FC9181
:10127000D597309759F099962D913C919A97D6969B
:101280006D917C91D797D3964C910995888190E088
:1012900001966CE070E00E9447188883DF91CF913F
:1012A0000895CF93DF93FB014FE050E060E070E0E2
:1012B0004083518362837383EC018C859D85AE8569
:1012C000BF85B695A7959795879584839583A683C3
:1012D000B78383E090E0A0E0B0E080879187A287A9
:1012E000B38780E190E0A0E0B0E084879587A6878F
:1012F000B78782E090E0A0E0B0E0808B918BA28B7A
:10130000B38B88E090E0A0E0B0E0848B958BA68B57
:10131000B78B84E090E0A0E0B0E0808F918FA28F47
:10132000B38F81E090E0A0E0B0E0848F958FA68F2E
:10133000B78F40E450E060E070E040A351A362A3A7
:1013400073A384A395A3A6A3B7A380E0DF91CF9155
:1013500008950F931F93F901411132C03181248107
:1013600033FF17C0432F437050E060E070E0762FEA
:10137000652F542F44273281432B762F652F542F0E
:1013800044273381432B26FD02C0706814C0706C63
:1013900012C0408150E060E070E0A3E0440F551FB0
:1013A000661F771FAA95D1F7A32FA295A695A770C0
:1013B0004A2B34FD70648F010B5F1F4F2F70D0DDFF
:1013C0001F910F9108956F927F928F929F92AF928B
:1013D000BF92CF92DF92EF92FF920F931F93CF9322
:1013E000DF93EC01362FFA014C018BE3881A8EEF64
:1013F000980AD4018C9190E001966CE070E00E9414
:101400004718182F422F50E05A01BFEFAB1ABB0A02
:10141000B501600F711D6F3071050CF086C0DE01E3
:10142000AC53BE4F9C91191709F481C0602E722EE7
:10143000BF01F401008110E08083332309F442C02E
:1014400024E2209FC001219F900D1124FE01E80F8E
:10145000F91F348B442329F045968C0F9D1F0E9461
:101460005B1824E2209FC001219F900D1124FE01F2
:10147000E80FF91F9C012C5E3F4F2C0F3D1F33A33B
:1014800022A321E0270D26A3A80EB91E24E1A20E57
:10149000B11CAC0EBD1EB2A6A1A663A682968C0F8F
:1014A0009D1F95A784A7611002C081E001C082E062
:1014B00094E2909FF001919FF00D1124EC0FFD1F1D
:1014C00086A70BC084E2809FF001819FF00D11245C
:1014D000EC0FFD1F12A611A616A684E2809FB00194
:1014E000819F700D1124FE01E60FF71F89E299E03C
:1014F00090AB87A7D2ABC1ABF5AAE4AAD7AAC6AA7C
:10150000645D7F4F6C0F7D1FCE010996DF91CF91F7
:101510001F910F91FF90EF90DF90CF90BF90AF9011
:101520009F908F907F906F90A4C68AEE01C084EF49
:10153000DF91CF911F910F91FF90EF90DF90CF90AF
:10154000BF90AF909F908F907F906F900895AF92D3
:10155000BF92CF92DF92EF92FF920F93CF93DF93E0
:10156000EC0120E030E093E0FE01E20FF31FEA53CC
:10157000FE4F8081823021F08081882311F006C0E7
:10158000922F2F5F3F4F2330310571F79330F9F0E1
:101590005E01C92FD0E061E070E001C0660F9A954E
:1015A000EAF76068C12CD12CE12CF12C00E020E09E
:1015B00040E050E0C50107DF811102C093E001C0A7
:1015C00090E0CA0DDB1DCA53DE4F988301C080E056
:1015D000DF91CF910F91FF90EF90DF90CF90BF9070
:1015E000AF9008957727411102C022E001C020E0AA
:1015F000680F791FFB01EA53FE4F2083A8CFCF93DA
:10160000DF9300D01F92CDB7DEB722E029836A8333
:101610004B8343E0BE016F5F7F4F0996E5D60F9085
:101620000F900F90DF91CF910895EF92FF920F935B
:101630001F93CF93DF9300D000D0CDB7DEB77C01EE
:101640008B01FB01448541504295440F440F407C7F
:1016500080898150482B6AE2C701D1DF811120C007
:10166000F80140814150406894819150990F990F41
:10167000990F492B69E2C701C2DF811111C0F8013E
:101680008085815095E0998398E29A8397E09B83C7
:101690008C8344E0BE016F5F7F4FC7010996A4D6DB
:1016A0000F900F900F900F90DF91CF911F910F919E
:1016B000FF90EF900895FC0181890C9426014F92D0
:1016C0005F926F927F928F929F92AF92BF92CF92D2
:1016D000DF92EF92FF920F931F93CF93DF93CDB7DB
:1016E000DEB72D970FB6F894DEBF0FBECDBFFB015E
:1016F000DC01A853BE4F2C91222351F011972C915D
:10170000222349F011972C9121117CC0912C05C006
:10171000B2E09B2E02C09924939444815581668146
:1017200077818A019B01002737FD03951127222726
:1017300033272A013B01AFE17A2277FF0AC0730108
:10174000620112E1F694E794D794C7941A95D1F701
:1017500006C06A017B01A7E0DA22EE24FF245C01C7
:10176000D701C60123E0B695A795979587952A9549
:10177000D1F78983962D9370802F880F880F880F5B
:10178000892BC294CC0C30EEC322C82ACA825B8259
:101790004C820085AEE17695679557954795AA9559
:1017A000D1F741705527B6E0440F551FBA95E1F7C0
:1017B000402B4D83002349F0402F50E0BF01645F70
:1017C0007F4FCE0106960E945B18892C912C25E054
:1017D000200FB401660F771F6064640192EFE92E59
:1017E0009AE0F92E00E0AE014F5F5F4FC501EBDDDF
:1017F000811109C0A80CB91CF501EA53FE4F91E014
:10180000908301C080EF2D960FB6F894DEBF0FBE17
:10181000CDBFDF91CF911F910F91FF90EF90DF909F
:10182000CF90BF90AF909F908F907F906F905F9080
:101830004F900895CF92DF92EF92FF920F93CF9344
:10184000DF9300D01F92CDB7DEB769834A832B8325
:10185000C12CD12CE12CF12C00E023E0AE014F5F34
:101860005F4F65E0B0DD0F900F900F90DF91CF914B
:101870000F91FF90EF90DF90CF900895AF92BF92BD
:10188000CF92DF92EF92FF920F93CF93DF931F924D
:10189000CDB7DEB75B018CE28983C12CD12C89ECFA
:1018A000E82E8DE0F82E02E021E0AE014F5F5F4FA1
:1018B00063E0C50188DD811104C0F50181890E94C2
:1018C00084010F90DF91CF910F91FF90EF90DF9007
:1018D000CF90BF90AF9008950F931F93CF93DF9356
:1018E0001F92CDB7DEB78C01FC01838981110E9464
:1018F0008401F801828981110E948401F8018189A3
:101900000E948401F8019089992331F1E92FE6952D
:10191000E695E695F0E07F963281292F277081E0E9
:1019200090E001C0880F2A95EAF78095832382838F
:10193000F8019089E92FE695E695E695F0E07F9627
:101940003281292F277081E090E001C0880F2A950D
:10195000EAF7832B828309C080EC898341E0BE01D2
:101960006F5F7F4FC80109963FD5F801EA53FE4FDC
:101970001082319610823196108280E00F90DF91B4
:10198000CF911F910F910895CF92DF92EF92FF9226
:101990000F93CB01C12CD12C29EAE22E29E0F22EA3
:1019A0000DE020E040E050E064E90DDD0F91FF9094
:1019B000EF90DF90CF900895CF92DF92EF92FF9259
:1019C0000F93CB01C12CD12C29EAE22E29E0F22E73
:1019D0000DE020E040E050E060E9F5DC0F91FF9081
:1019E000EF90DF90CF900895CF92DF92EF92FF9229
:1019F0000F931F93CF93DF9300D000D0CDB7DEB706
:101A00007C01FB0180819181A281B3810097A105B6
:101A1000B10529F00197A105B10521F07CC0C701EE
:101A20005BDF7CC0FB010481F7018289811103C067
:101A300040E01DE302C045E01CE3F70183898823F1
:101A400011F04A6001C012606CE0C701D8DD81115D
:101A500065C040E06CE2C701D2DD81115FC0412F5B
:101A60006BE2C701CCDD811159C040E660E7C701D8
:101A7000C6DD182F81114BC044E660E6C701BFDD0B
:101A8000182F811144C002FD02C080E001C080E433
:101A900095E0998399E29A8390E49B838C83670114
:101AA000F9E0CF0ED11C44E0BE016F5F7F4FC6014D
:101AB0009BD4182F81112BC003FF02C098E001C0F6
:101AC00090E001FF02C0906402C000FD906685E0D6
:101AD00089838FE08A8388EF8B839C8344E0BE01F7
:101AE0006F5F7F4FC60180D4182F811110C0F7019E
:101AF00081890E942601F701828981110E942601B5
:101B0000F7018389882349F00E94260106C0C70196
:101B1000E3DE812F03C08AEE01C080E00F900F90BA
:101B20000F900F90DF91CF911F910F91FF90EF9049
:101B3000DF90CF900895CF92DF92EF92FF920F93B4
:101B40001F93CF93DF93EC01162F84E0689F9001E1
:101B50001124622F6069C12CD12C89EAE82E89E01A
:101B6000F82E0DE020E040E050E0CE012CDC41E01A
:101B700050E001C0440F1A95EAF7242F6BE2CE0122
:101B8000DF91CF911F910F91FF90EF90DF90CF9059
:101B900051CE9F92AF92BF92CF92DF92EF92FF927F
:101BA0000F931F93CF93DF93CDB7DEB728970FB670
:101BB000F894DEBF0FBECDBF5C01F901908081813A
:101BC000442329F0F50181890E942601A3C095FED6
:101BD0004EC08E010F5F1F4F98E0F80111929A9549
:101BE000E9F781FF09C094E09A8354E0C52ED12C17
:101BF000E12C50E2F52E05C0C12CD12CE12C40E2A5
:101C0000F42E82FF09C09A8198609A8334E0C32E33
:101C1000D12CE12C30E2F32E83FF09C09A81906130
:101C20009A8324E0C22ED12CE12C20E2F22E84FFF4
:101C300009C09A8190629A8394E0C92ED12CE12C3C
:101C400090E2F92E85FF02C06894C6F8807C51F0BE
:101C50006894C2F88A8181608A8320EC4FEF6DE23C
:101C6000C501E8DD28E0B701A601C50179D992FEDA
:101C700004C0F501EA53FE4F108293FE04C0F50143
:101C8000E953FE4F108294FE04C0F501E853FE4F65
:101C90001082492D4C7321F020E06CE2C501CADDB1
:101CA000F5018289811103C0192D117001C010E066
:101CB000F5018389811104C091FE02C0126003C046
:101CC000112331F011E020E0412F6BE2C501B2DDBC
:101CD000C12CD12C8BE5E82E8BE0F82E00E020E023
:101CE00040E050E060E0C5016EDB882321F0F501A3
:101CF00081890E94260110FF03C060E0C5011BDF3F
:101D000011FF03C061E0C50116DF892D8C7111F050
:101D1000C5011DDC28960FB6F894DEBF0FBECDBFFF
:101D2000DF91CF911F910F91FF90EF90DF90CF90B7
:101D3000BF90AF909F9008950F931F93CF93DF9321
:101D4000FC014485558566857785405452446F4033
:101D50007109413056436E46714008F04FC0EC01A6
:101D60008889811106C0CE01099687D0811147C0AC
:101D700006C060E00E9400048823A9F340C08E01E1
:101D80002EE33CE040E060E089890E94B7018111C8
:101D900036C08A89811104C08B8981110BC013C0A0
:101DA0008E012CED3CE042E060E00E94B701882308
:101DB00099F325C08E0124EC3CE042E060E00E94F3
:101DC000B70181111CC084EF9CE09E838D8385E167
:101DD0009BE09C838B8381E599E09A8389838FE5DF
:101DE0009BE098878F83CE010E946404811107C015
:101DF000CE01DF91CF911F910F916ECD8AEEDF91D1
:101E0000CF911F910F910895E82FE695E695E695FD
:101E1000F0E07F96282F2770328181E090E001C0AA
:101E2000880F2A95EAF7662311F0832B02C080956C
:101E300083238283089521E0FC012083089580910B
:101E4000500A811118C060E0809194040E9400043F
:101E5000811112C061E0809195040E9400048111FB
:101E60000BC060E0809196040E94E303811104C0DE
:101E700081E08093500A80E00895CF93DF93EC01D6
:101E8000DEDF81110CC08881811103C08091930431
:101E9000888361E08881DF91CF910C940004DF9109
:101EA000CF910895FC019281903189F040F49430F3
:101EB000D1F0983081F0923039F541E015C090347E
:101EC00041F0903869F09032F9F441E007C040E009
:101ED00003C040E003C041E051E007C052E005C04C
:101EE00040E053E002C040E050E09181937084E014
:101EF000989F90011124252B206D2CBD4DBD61E0D4
:101F0000808182DF80E008958AEE0895CF92DF928B
:101F1000EF92FF920F931F93CF93DF93D82FC6E0DA
:101F20000DEC1CECE090520AF12CCE9DF001CF9DFF
:101F3000F00D1124ED5AF54FA281B38112968C91C8
:101F4000882331F00190F081E02D61E080815CDF39
:101F5000CE9DF001CF9DF00D1124ED5AF54FA281D9
:101F6000B3811796DC93A281B3811396ED91FC9116
:101F70001497309729F015968D919C911697099595
:101F8000CE9DF001CF9DF00D1124ED5AF54F118239
:101F90001082138212828091520A8F5F8F71809318
:101FA000520AC82ED12C9091510A891709F499C070
:101FB000CC9DC001CD9D900D11249C012D5A354F13
:101FC0007901D9011496ED91FC9115973097D1F5CF
:101FD0001296ED91FC9113978281811102C0D0E09D
:101FE000A1CF8D919C9120914E0A30914F0A82177A
:101FF000930759F057DFD82F87FD94CFF7018081E1
:10200000918190934F0A80934E0ACC9DC001CD9D43
:10201000900D11249C012D5A354F7901D901ED9174
:10202000FC9160E08081F0DED7011296ED91FC9189
:1020300013978081918115969C938E93149710929B
:102040004D0A0FC02281338180914D0A211531053F
:1020500029F09EB5F901E80FF11D90838F5F809301
:102060004D0A20914D0ACC9DC001CD9D900D1124AB
:102070008D5A954FDC0114960296ED91FC911197C3
:102080003481231708F17F0125E0E20EF11C11963F
:10209000FC92EE92FC014081518120E0FA016081C6
:1020A0007181F701E61BF70BE09FB001E19F700D16
:1020B000F09F700D1124FA01428150E064177507FA
:1020C000E4F210924D0A8BCF20934D0A80819181CA
:1020D000009729F0FC01E20FF11D808101C080E032
:1020E0008EBDDF91CF911F910F91FF90EF90DF9008
:1020F000CF9008951F920F920FB60F9211240F9355
:102100001F932F933F934F935F936F937F938F937F
:102110009F93AF93BF93CF93DF93EF93FF93809100
:10212000520A082F10E09091510A891709F48CC0C7
:1021300086E0809FE001819FD00D1124CD5AD54FBC
:10214000EC81FD81309789F5EA81FB8182818111E3
:1021500002C080E00CC08881998120914E0A3091A4
:102160004F0A8217930759F09DDE87FF02C0CEDE2B
:102170006BC08881998190934F0A80934E0A86E0C4
:10218000809FE001819FD00D1124CD5AD54FE88169
:10219000F98160E0808138DEEA81FB818081918174
:1021A0009D838C8310924D0A0FC0228133818091D0
:1021B0004D0A2115310529F09EB5F901E80FF11DF1
:1021C00090838F5F80934D0A20914D0A36E0309FB7
:1021D000C001319F900D11248D5A954FDC0114964A
:1021E00002966DEC7CECED91FC91119734812317F4
:1021F000F0F08F010B5F1F4F11961C930E93FC01A3
:10220000C081D18120E048815981F801E41BF50BA0
:10221000E69F8001E79F100DF69F100D11244A8163
:1022200050E004171507FCF210924D0A92CF20934C
:102230004D0A80819181009729F0FC01E20FF11D88
:10224000808101C080E08EBDFF91EF91DF91CF9141
:10225000BF91AF919F918F917F916F915F914F91BE
:102260003F912F911F910F910F900FBE0F901F90D4
:1022700018950F931F93CF93DF932091510A31E06C
:10228000320F3F714091520A341304C080EFEB01CA
:102290008F837BC0022F10E0E6E02E9FE001112427
:1022A000CD5AD54FD0934C0AC0934B0A998388835B
:1022B0007B836A831D821C823093510A421364C05F
:1022C000FB012281211102C080E00AC020914E0A48
:1022D00030914F0A8217930759F0E4DD87FF02C05F
:1022E00015DE52C08881998190934F0A80934E0ADF
:1022F00086E0809FE001819FD00D1124CD5AD54FFB
:10230000E881F98160E080817FDDEA81FB81808165
:1023100091819D838C8310924D0A20E0DE011496FA
:102320008E010E5F1F4F4DEC5CECED91FC9111970F
:1023300084812817E0F035961196FC93EE93E8011E
:102340008881998120E0EC0168817981E61BF70B97
:10235000E49FB001E59F700DF49F700D11248A81F8
:1023600090E0681779070CF310924D0AADCF2093D7
:102370004D0A80819181009729F0FC01E20FF11D47
:10238000808101C080E08EBD80E0DF91CF911F9100
:102390000F910895FC0190819923E9F30895EF923C
:1023A000FF920F931F93CF93DF931F92CDB7DEB7AA
:1023B0008B0119822BE13FE0FB01348323839E01D3
:1023C0002F5F3F4F79013683258353DF811104C08E
:1023D000C701E0DFF80187810F90DF91CF911F9156
:1023E0000F91FF90EF900895CF93DF93CDB7DEB7B5
:1023F0002D970FB6F894DEBF0FBECDBFFE01399604
:1024000025E0DF011D922A95E9F77A8769874D87D4
:10241000BE016F5F7F4F28E0DB011D922A95E9F72F
:10242000FA83E98321E02B83BADF2D960FB6F89467
:10243000DEBF0FBECDBFDF91CF910895CF92DF9267
:10244000EF92FF920F931F93CF93DF93EC018B01D9
:102450006A011CD3811132C0C114D10439F0F601D4
:1024600080819181081B190BC80FD91FE12CF12C19
:102470000115110511F18091E80085FD15C08091CD
:10248000E8008E778093E800C114D10449F0F6018A
:1024900080819181E80EF91EF182E08285E00EC014
:1024A000F5D2882329F30AC089918093F100015065
:1024B0001109FFEFEF1AFF0ADBCF80E0DF91CF9128
:1024C0001F910F91FF90EF90DF90CF900895CF92E2
:1024D000DF92EF92FF920F931F93CF93DF93EC0164
:1024E0008B016A01D3D2811138C098012150310982
:1024F000C20FD31FC114D10439F0F601808191813C
:10250000081B190BC81BD90BE12CF12C0115110567
:1025100019F18091E80085FD15C08091E8008E7763
:102520008093E800C114D10449F0F60180819181C3
:10253000E80EF91EF182E08285E00FC0A7D2882361
:1025400029F30BC088818093F10021970150110974
:10255000FFEFEF1AFF0ADACF80E0DF91CF911F91F2
:102560000F91FF90EF90DF90CF900895CF92DF9280
:10257000EF92FF920F931F93CF93DF93EC018B01A8
:102580006A0184D2811132C0C114D10439F0F6013C
:1025900080819181081B190BC80FD91FE12CF12CE8
:1025A0000115110511F18091E80085FD15C080919C
:1025B000E8008B778093E800C114D10449F0F6015C
:1025C00080819181E80EF91EF182E08285E00EC0E3
:1025D0005DD2882329F30AC08091F10089930150CC
:1025E0001109FFEFEF1AFF0ADBCF80E0DF91CF91F7
:1025F0001F910F91FF90EF90DF90CF900895CF92B1
:10260000DF92EF92FF920F931F93CF93DF93EC0132
:102610008B016A013BD2811138C0980121503109E8
:10262000C20FD31FC114D10439F0F601808191810A
:10263000081B190BC81BD90BE12CF12C0115110536
:1026400019F18091E80085FD15C08091E8008B7735
:102650008093E800C114D10449F0F6018081918192
:10266000E80EF91EF182E08285E00FC00FD28823C8
:1026700029F30BC08091F100888321970150110943
:10268000FFEFEF1AFF0ADACF80E0DF91CF911F91C1
:102690000F91FF90EF90DF90CF90089520911E0B47
:1026A00030911F0B2617370748F06115710539F473
:1026B0002091E8002E772093E80001C0B90140E0A6
:1026C0006115710599F12091170B222309F441C07E
:1026D000253009F440C02091E80023FD3EC0209140
:1026E000E80022FD30C02091E80020FFE9CF2091D2
:1026F000F2003091F300FC01CF016115710559F032
:102700002034310540F481918093F10061507109CA
:102710002F5F3F4FF1CF41E02034310509F040E019
:102720002091E8002E772093E800CACF4111CBCF4B
:102730000AC08091170B882361F0853061F0809189
:10274000E80083FD0AC08091E80082FFF2CF80E0BC
:10275000089582E0089583E0089581E008959B0143
:1027600021503109820F931F20911E0B30911F0BB6
:102770002617370748F06115710539F42091E800F4
:102780002E772093E80001C0B90140E06115710582
:1027900099F12091170B222309F441C0253009F447
:1027A00040C02091E80023FD3EC02091E80022FDBA
:1027B00030C02091E80020FFE9CF2091F200309155
:1027C000F3006115710569F02034310550F4FC0106
:1027D00040814093F1000197615071092F5F3F4F95
:1027E000F0CF41E02034310509F040E02091E800CD
:1027F0002E772093E800CACF4111CBCF0AC0809139
:10280000170B882361F0853061F08091E80083FD2B
:102810000AC08091E80082FFF2CF80E0089582E054
:10282000089583E0089581E008956115710529F404
:102830002091E8002B772093E800FC0161157105D9
:1028400031F18091170B882351F1853051F180913E
:10285000E80083FD22C08091E80082FFEFCF8091E5
:10286000F2009091F300892B31F08091F100819377
:1028700061507109A1F78091E8008B778093E8009F
:10288000DDCF8091170B882351F0853051F0809176
:10289000E80080FFF6CF80E0089581E0089582E0AF
:1028A000089583E008959B0121503109820F931F01
:1028B0006115710529F42091E8002B772093E80039
:1028C0006115710519F12091170B222339F125307B
:1028D00039F12091E80023FD1FC02091E80022FF7C
:1028E000EFCF2091F2003091F300232B21F32091C0
:1028F000F100FC01208301976150710991F7DBCF52
:102900008091170B882351F0853051F08091E800B9
:1029100080FFF6CF80E0089581E0089582E0089579
:1029200083E0089520911E0B30911F0B2617370767
:1029300048F06115710539F42091E8002E77209355
:10294000E80001C0B901FC0120E06115710589F1C1
:102950008091170B882309F43FC0853009F43EC0ED
:102960008091E80083FD3CC08091E80082FD2EC08C
:102970008091E80080FFE9CF8091F2009091F30010
:102980006115710559F08034910540F4249120932C
:10299000F1003196615071090196F2CF21E0803447
:1029A000910509F020E08091E8008E778093E8009F
:1029B000CCCF2111CDCF0AC08091170B882361F0B5
:1029C000853061F08091E80083FD0AC08091E800C5
:1029D00082FFF2CF80E0089582E0089583E00895B9
:1029E00081E00895982F973058F59093E900981753
:1029F00039F07091EC002091ED005091F00003C08F
:102A0000242F762F50E021FF19C03091EB003E7F3C
:102A10003093EB003091ED003D7F3093ED0030912D
:102A2000EB0031603093EB007093EC002093ED00ED
:102A30005093F0002091EE0027FF07C09F5FD3CF97
:102A40008F708093E90081E0089580E0089580917F
:102A5000180B87FF11C08091E80082FD05C08091AE
:102A6000170B8111F8CF11C08091E8008B770BC054
:102A70008091170B882349F08091E80080FFF8CF00
:102A80008091E8008E778093E80008952091E4001B
:102A90003091E50095E64091EC00842F817040FF75
:102AA00022C08091E80080FD1CC08091170B882314
:102AB00091F0853091F08091EB0085FD10C0409140
:102AC000E4005091E5004217530729F39A01915011
:102AD00011F784E0089582E0089583E0089581E08D
:102AE000089580E008954091E80042FFDECF089508
:102AF0000F931F93CF93DF934ED055D0C8EDD0E006
:102B000088818F77888388818068888388818F7D9A
:102B10008883E7EDF0E080818068808319BC1092A3
:102B2000170B1092130B1092150B1092140B00EE52
:102B300010E0F80180818B7F8083888181608883A9
:102B400042E360E080E04EDFE1EEF0E080818E7FE6
:102B50008083E2EEF0E08081816080838081886004
:102B60008083F80180818E7F808388818061888363
:102B7000DF91CF911F910F910895E8EDF0E08081F2
:102B80008F7E8083E7EDF0E080818160808381E04B
:102B90008093160BADCFE8EDF0E080818C7F8083D1
:102BA0001092E20008951092DA001092E100089568
:102BB0001F920F920FB60F9211242F933F934F93B2
:102BC0005F936F937F938F939F93AF93BF93EF9395
:102BD000FF938091E10082FF0AC08091E20082FFB2
:102BE00006C08091E1008B7F8093E1004FD28091FD
:102BF000DA0080FF1FC08091D80080FF1BC0809149
:102C0000DA008E7F8093DA008091D90080FF0DC0BA
:102C100088E189BD8AE189BD09B400FEFDCF81E06C
:102C20008093170B0E94260805C019BC1092170B41
:102C30000E9427088091E10080FF18C08091E20087
:102C400080FF14C08091E2008E7F8093E20080912B
:102C5000E20080618093E2008091D80080628093DE
:102C6000D80019BC85E08093170B10D28091E10049
:102C700084FF2FC08091E20084FF2BC088E189BDD2
:102C80008AE189BD09B400FEFDCF8091D8008F7D17
:102C90008093D8008091E1008F7E8093E100809145
:102CA000E2008F7E8093E2008091E2008160809359
:102CB000E2008091130B882311F084E007C080911B
:102CC000E30087FD02C081E001C083E08093170B21
:102CD000DDD18091E10083FF27C08091E20083FF76
:102CE00023C08091E100877F8093E10082E08093A0
:102CF000170B1092130B8091E1008E7F8093E100FF
:102D00008091E2008E7F8093E2008091E2008061FA
:102D10008093E20042E360E080E064DE8091F000B6
:102D200088608093F000B2D1FF91EF91BF91AF9195
:102D30009F918F917F916F915F914F913F912F91D3
:102D40000F900FBE0F901F9018951F920F920FB605
:102D50000F9211242F933F934F935F936F937F9321
:102D60008F939F93AF93BF93CF93DF93EF93FF9393
:102D7000C091E900CF708091EC00D82FD17080FD18
:102D8000D0E81092E9008091F000877F8093F000F6
:102D900078941ED01092E9008091F00088608093B2
:102DA000F000CD2BCF70C093E900FF91EF91DF9140
:102DB000CF91BF91AF919F918F917F916F915F91D3
:102DC0004F913F912F910F900FBE0F901F9018952C
:102DD0001F93CF93DF93CDB7DEB7AA970FB6F894C2
:102DE000DEBF0FBECDBFE8E1FBE088E08E0F909123
:102DF000F10091938E13FBCF0E943B088091E80075
:102E000083FF2CC18091180B9091190B953009F418
:102E100083C030F49130A9F168F0933091F11EC174
:102E2000983009F4EFC0993009F4FBC0963009F0EE
:102E300015C194C0803821F0823809F00FC108C054
:102E40008091140B9091150B992389F082600FC02B
:102E500080911C0B8F70873008F000C18093E900CF
:102E60008091EB0085FB882780F91092E900909112
:102E7000E800977F9093E8008093F1001092F100B2
:102E8000CCC0282F2D7F09F0E9C0882319F08230AB
:102E900061F0E4C080911A0B813009F0DFC09330FB
:102EA00009F080E08093150B2EC080911A0B8111E0
:102EB0002AC080911C0B8F702FEF280F263008F04E
:102EC000CDC08093E9002091EB0020FF1CC093301F
:102ED00021F48091EB00806214C09091EB0090612E
:102EE0009093EB0021E030E0A90102C0440F551F90
:102EF0008A95E2F74093EA001092EA008091EB0095
:102F000088608093EB001092E9008091E800877F51
:102F10008093E8009CDDA2C08111A0C010911A0B23
:102F20001F778091E3008078812B8093E30080916C
:102F3000E800877F8093E8008ADD8091E80080FFC9
:102F4000FCCF8091E30080688093E300111102C000
:102F500082E001C083E08093170B80C080588230EC
:102F600008F07CC080911A0B90911B0B8C3D53E0B4
:102F7000950771F583E08A838AE289834FB7F894D5
:102F8000DE01139620E03EE051E2E32FF0E05093A3
:102F90005700E49120FF03C0E295EF703F5FEF70B0
:102FA0008E2F90E0EA3010F0C79601C0C0968D9346
:102FB0009D932F5F243149F74FBF8091E800877FB1
:102FC0008093E8006AE270E0CE01019667DB14C0EE
:102FD00060911C0B70911D0BAE014F5F5F4F0E9403
:102FE000A200BC01892BD1F19091E800977F9093CA
:102FF000E80089819A8196DC8091E8008B77809344
:10300000E8002CC0803851F58091E800877F8093DC
:10301000E8008091130B8093F1008091E8008E7797
:1030200077CF81111BC090911A0B9230B8F4809128
:10303000E800877F8093E8009093130B08DD809170
:10304000130B811106C08091E30087FD02C081E06F
:1030500001C084E08093170B0E9428088091E8004B
:1030600083FF0AC08091E800877F8093E800809109
:10307000EB0080628093EB00AA960FB6F894DEBF57
:103080000FBECDBFDF91CF911F9108950895AA1B68
:10309000BB1B51E107C0AA1FBB1FA617B70710F043
:1030A000A61BB70B881F991F5A95A9F78095909575
:1030B000BC01CD010895FB01DC0102C001900D921D
:1030C00041505040D8F70895DC01CB01FC01F9993B
:1030D000FECF06C0F2BDE1BDF89A319600B40D9264
:0C30E00041505040B8F70895F894FFCF1D
:1030EC0002000000000000000000200002002D3152
:1030FC0001254042430000000000000000000000D9
:10310C0000000000000000000000000000000000B3
:10311C0000000000000000000000000000000000A3
:10312C000000000000000000000000000000000093
:10313C000000000000000000000000000000000083
:10314C000000000000000000000000000000000073
:10315C000000000000000000000000000000000063
:10316C000000000000000000000000000000000053
:10317C000000000000000000000000000000000043
:10318C000000000000000000000000000000000033
:10319C000000000000000000000000000000000023
:1031AC000000000000000000000000000000000013
:1031BC000000000000000000000000000000000003
:1031CC0000000000000000000000000000000000F3
:1031DC0000000000000000000000000000000000E3
:1031EC0000000000000000000000000000000000D3
:1031FC0000000000000000000000000000000000C3
:10320C0000000000000000000000000000000000B2
:10321C0000000000000000000000000000000000A2
:10322C000000000000000000000000000000000092
:10323C000000000000000000000000000000000082
:10324C000000000000000000000000000000000072
:10325C000000000000000000000000000000000062
:10326C000000000000000000000000000000000052
:10327C000000000000000000000000000000000042
:10328C000000000000000000000000000000000032
:10329C000000000000000000000000000000000022
:1032AC000000000000000000000000000000000012
:1032BC00000000240002002D31012641444500008D
:1032CC0000000000000000000000000000000000F2
:1032DC0000000000000000000000000000000000E2
:1032EC0000000000000000000000000000000000D2
:1032FC0000000000000000000000000000000000C2
:10330C0000000000000000000000000000000000B1
:10331C0000000000000000000000000000000000A1
:10332C000000000000000000000000000000000091
:10333C000000000000000000000000000000000081
:10334C000000000000000000000000000000000071
:10335C000000000000000000000000000000000061
:10336C000000000000000000000000000000000051
:10337C000000000000000000000000000000000041
:10338C000000000000000000000000000000000031
:10339C000000000000000000000000000000000021
:1033AC000000000000000000000000000000000011
:1033BC000000000000000000000000000000000001
:1033CC0000000000000000000000000000000000F1
:1033DC0000000000000000000000000000000000E1
:1033EC0000000000000000000000000000000000D1
:1033FC0000000000000000000000000000000000C1
:10340C0000000000000000000000000000000000B0
:10341C0000000000000000000000000000000000A0
:10342C000000000000000000000000000000000090
:10343C000000000000000000000000000000000080
:10344C000000000000000000000000000000000070
:10345C000000000000000000000000000000000060
:10346C000000000000000000000000000000000050
:10347C0000000020212223505152536C6D6E6F209E
:0A348C002122232425262723000017
:00000001FF
